S02300004C43445F494E54455246415A5F53494D504C455F424F544F4E45532E73726563CA
S113000071C0000079C0000077C0000075C0000016
S113001073C0000071C000006FC000006DC000001C
S11300206BC0000069C0000067C0000065C000002C
S113003063C0000061C000005FC000005DC000003C
S11300405BC0000059C0000057C0000055C000004C
S113005053C0000051C000004FC000004DC000005C
S11300604BC0000049C0000047C0000045C000006C
S113007043C0000041C000003FC000003DC000007C
S11300803BC0000039C0000037C0000035C000008C
S113009033C0000031C000002FC000002DC000009C
S11300A02BC0000029C0000027C0000025C00000AC
S11300B023C0000021C000001FC000001DC00000BC
S11300C01BC0000019C0000017C0000015C00000CC
S11300D013C0000011C000000FC000000DC00000DC
S11300E00BC0000011241FBECFEFD1E2DEBFCDBF95
S11300F000E00CBF31D0A7C083CF409A8FED9EE2C1
S11301000197F1F700C00000089540988FED9EE23A
S11301100197F1F700C000000895419A8FE99FE02C
S11301200197F1F700C0000041988FE99FE0019723
S1130130F1F700C000000895CF93C82FE6DFC05444
S1130140C5B9EBDFCF910895CF93C82FDEDFC05838
S1130150C5B9E3DFCF910895CF93DF93CDB7DEB771
S113016063970FB6F894DEBF0FBECDBF81E08983DD
S113017088E38A8386E08B838CE08C839FE08E0106
S11301800B5F1F4FF801892F11928A95E9F788E4D4
S11301908D838FE48E832CE42F8331E4388720E22F
S11301A029873A872B8724E52C878D8724E42E879B
S11301B08F8783E5888B8FEF84B997B9A6DFFE011B
S11301C031967F01F70181917F0185B9A6DFE016A1
S11301D0F106C1F782E090E0B7DF8FDF8E010B5F9D
S11301E01F4F7E01F1E1EF0EF11CF80181918F01A7
S11301F085B993DF0E151F05C1F70F2EF3E3EF2E1C
S1130200F02D0F2EF2E3FF2EF02D01E30F2EF4E379
S1130210DF2EF02D87E090E08FDF6FDF16B1107CCA
S113022019F405B97ADF0AC0103419F4F5B875DF8A
S1130230F1CF103819F4E5B870DFECCF103C51F76A
S10D0240D5B86BDFE7CFF894FFCFC9
S9030000FC
