S01B00004B65795061645F4C43445F50726F796563746F2E73726563E5
S113000071C0000086C0000084C0000082C00000EF
S113001080C000007EC000007CC000007AC00000E8
S113002078C0000076C0000074C0000072C00000F8
S113003070C000006EC000006CC000006AC0000008
S113004068C0000066C0000064C0000062C0000018
S113005060C000005EC000005CC000005AC0000028
S113006058C0000056C0000054C0000052C0000038
S113007050C000004EC000004CC000004AC0000048
S113008048C0000046C0000044C0000042C0000058
S113009040C000003EC000003CC000003AC0000068
S11300A038C0000036C0000034C0000032C0000078
S11300B030C000002EC000002CC000002AC0000088
S11300C028C0000026C0000024C0000022C0000098
S11300D020C000001EC000001CC000001AC00000A8
S11300E018C0000011241FBECFEFD1E2DEBFCDBF88
S11300F000E00CBF12E0A0E0B2E0E0E5F2E000E0D6
S11301000BBF02C007900D92A031B107D9F731D0CF
S11301109DC076CF469A8FED9EE20197F1F700C01D
S11301200000089546988FED9EE20197F1F700C014
S113013000000895479A8FE99FE00197F1F700C006
S1130140000047988FE99FE00197F1F700C0000095
S11301500895CF93C82FE6DFC054C5B9EBDFCF9124
S11301600895CF93C82FDEDFC058C5B9E3DFCF9120
S11301700895CF93DF93CDB7DEB7A3970FB6F89466
S1130180DEBF0FBECDBF81E0898388E38A8386E02A
S11301908B838CE08C838E010B5F1F4F8FE0F80103
S11301A011928A95E9F78BE48D8395E49E8399E512
S11301B09F8390E5988791E4998724E42A8790E2C5
S11301C09B873CE43C8733E43D872E879F87888B5D
S11301D080E1E0E0F2E0DE01549601900D928A9510
S11301E0E1F78FEF84B980EC87B99CDFCE010196EB
S11301F07C01F70181917F0185B99CDFE016F1064E
S1130200C1F782E090E0ADDF85DF8E010B5F1F4F09
S11302107E01F1E1EF0EF11CF80181918F0185B9A6
S113022089DF0E151F05C1F7349BFECF16B187E099
S113023090E08FDF6FDF1F70E4E1F0E0EC0FFD1F53
S1130240E10FF11D808185B975DFEECFF894FFCF02
S113025037383925343536783132332D6F303D2BEC
S9030000FC
