S01700004D616E656A6F2064652070696E65732E737265638B
S113000071C0000079C0000077C0000075C0000016
S113001073C0000071C000006FC000006DC000001C
S11300206BC0000069C0000067C0000065C000002C
S113003063C0000061C000005FC000005DC000003C
S11300405BC0000059C0000057C0000055C000004C
S113005053C0000051C000004FC000004DC000005C
S11300604BC0000049C0000047C0000045C000006C
S113007043C0000041C000003FC000003DC000007C
S11300803BC0000039C0000037C0000035C000008C
S113009033C0000031C000002FC000002DC000009C
S11300A02BC0000029C0000027C0000025C00000AC
S11300B023C0000021C000001FC000001DC00000BC
S11300C01BC0000019C0000017C0000015C00000CC
S11300D013C0000011C000000FC000000DC00000DC
S11300E00BC0000011241FBECFEFD1E2DEBFCDBF95
S11300F000E00CBF27D03FC083CF409A8FE99FE038
S11301000197F1F700C0000040988FE99FE0019744
S1130110F1F700C000000895CF93DF93D82FC8E013
S1130120D0FF02C0419A01C04198E7DF8FE99FE008
S11301300197F1F700C00000D695C15089F7DF910F
S1130140CF9108958FE087B98AEAE6DF2FEF83ED38
S113015090E3215080409040E1F700C0000085E525
S1130160DBDF2FEF83ED90E3215080409040E1F7F7
S10D017000C00000FFCFF894FFCF99
S9030000FC
