S01700004D616E656A6F2064652070696E65732E737265638B
S113000071C0000086C0000084C0000082C00000EF
S113001080C000007EC000007CC000007AC00000E8
S113002078C0000076C0000074C0000072C00000F8
S113003070C000006EC000006CC000006AC0000008
S113004068C0000066C0000064C0000062C0000018
S113005060C000005EC000005CC000005AC0000028
S113006058C0000056C0000054C0000052C0000038
S113007050C000004EC000004CC000004AC0000048
S113008048C0000046C0000044C0000042C0000058
S113009040C000003EC000003CC000003AC0000068
S11300A038C0000036C0000034C0000032C0000078
S11300B030C000002EC000002CC000002AC0000088
S11300C028C0000026C0000024C0000022C0000098
S11300D020C000001EC000001CC000001AC00000A8
S11300E018C0000011241FBECFEFD1E2DEBFCDBF88
S11300F000E00CBF12E0A0E0B2E0ECE1F2E000E0CE
S11301000BBF02C007900D92A031B107D9F746D0BA
S113011083C076CF409A8FE99FE00197F1F700C042
S1130120000040988FE99FE00197F1F700C00000BC
S1130130089542988FE99FE00197F1F700C000000D
S11301400895429A8FE99FE00197F1F700C00000FB
S11301500895439A8FED9EE20197F1F700C00000E5
S113016043988FED9EE20197F1F700C000000895D7
S1130170CF93DF93D82FC8E0D0FF02C0419A01C0CB
S11301804198C8DF8FE99FE00197F1F700C00000B4
S1130190D695C15089F7DF91CF910895CF93DF931E
S11301A0CDB7DEB763970FB6F894DEBF0FBECDBFF1
S11301B08FE087B981E0898388E38A838CE08B832D
S11301C086E08C838FE0E0E0F2E0DE01159601909A
S11301D00D928A95E1F7ADDF8E010F5F1F4F7E010F
S11301E085E0E80EF11CF80181918F01C1DFB1DFD8
S11301F00E151F05C1F7A5DF8E010B5F1F4F7E0192
S1130200F4E1EF0EF11CF80181918F01B1DFA1DF60
S10F02100E151F05C1F7FFCFF894FFCFB7
S113021C484F4C41204C434420434F4E204646000B
S9030000FC
